:1042D50021000013011110A69482A0088803425DF5
:1042E500F200000102030422000001102100000178
:1042F500712450000900000000000008000027009C
:10430500000561000000B02709000485550038004C
:0143150000A7
:0844CF004107D8004107D900A4
:1035D300F583121CFF7808121CCC9007DBE475F00E
:1035E30001121DC7EF021AF29007DAE475F0011217
:1035F3001B3C85F082F583E493FF9007DAE475F0D2
:1036030001121B3C85F082F583229007DBE475F001
:1036130001021DC79007DAE025E025E022EF25E04F
:103623002425F582E43406F583E4F0EF25E024262F
:10363300F582E43406F583229028B47480F0229056
:1036430007DE121D5CE4FFFEFDFC9007DE021D2772
:1036530025E025E02453F582E43405F5832225E0B3
:1036630025E0243FF582E43405F583229007CD124B
:103673001DBE900003021AC5FFE4FEFDFCFBFAF930
:10368300F8C3021CBB9007DAE004F022242BF58276
:10369300E43405F583021CFF9007DAE0FFC39404CA
:1036A300229007DE021CFF25E02425F582E4340680
:1036B300F58322F09007A6F0A37406F022E07C00C5
:1036C3002400FFEC3EFEE4FD227402902424F090DB
:1036D300242322F09007E2E004F0227402902426CF
:1036E300F0902425229FEE6480F87480982225E0D0
:1036F300246CF582E43405F58322A811121CF3EF40
:10370300229007E2E0FFC3229007DAE0FB25E025E1
:0C371300E0229007ADE09007E3F01422E4
:103F490012363BE4F58E75BF02F582F583F584F5EB
:103F590085F592F5A8F5B8F59AF5C075A90C75B966
:103F69001B7A0B79F8121E0D7A0B79F8121E0D7A4D
:103F79000B79F8121E0D7A0B79F8121E0D7580F364
:103F89007590CC75A020E4F5B075C860F5D0F5F052
:103F990043D880F58775BAFF75AAF87598DED2AC53
:103FA900758911D28C758A84758C0DF5E8F5F8D26E
:103FB90094D290D2A5D2A1C295C2A61236CCF01243
:0F3FC90036E0F0902428F0902427F012363B22A7
:103B7400C2AF9028B0E030E70A902502740EF090AE
:103B84002503F0123F497E427FD512420C12363B88
:103B94001244491245015003023C5012363BC20103
:103BA400751002F09000FEE493FE7401937802C352
:103BB40033CE33CED8F9FF78007C007D017BFF7AC9
:103BC400017900121A86122E3312450F90008012CA
:103BD4001CFFED54F0FDEF4420FF74DAFEED443099
:103BE400FDEC900080121D5C900084121D680000A2
:103BF400001D900090121D6801760FCA9007A21252
:103C04001D68000000009007D3121D68000000002A
:103C140012363B75B82275A892902106E04401F053
:103C2400124501402712363B1243161232D7300197
:103C34001312363BC20112231F7FF47E017D007CE8
:103C440000123D3F1243571243D580D41245014020
:093C540003023B7412363B80F3BD
:08420C009007DAEEF0A3EFF0D9
:104214001235EBE493FDEFFEEDFF4E602E9007DCCC
:10422400EEF0A3EFF01235EBE493FDEFFEEDFFC3E8
:10423400E41236E850DA1235FDE493FD9007DC12FF
:0B4244003600EDF0EF1F70E71E80E475
:01424F00224C
:0E450100E5F95407D394004003D38001C32290
:03006B000244113B
:10441100C0E0C083C08230E90375E8FD30EC03756C
:10442100E8EF30E81C75E8FEE5107004D201801158
:10443100D5100E902457E044C0F0902458E044C0B9
:08444100F0D082D083D0E032FC
:03004B0002371F5A
:10371F00C0E0C0F0C083C082C0D075D008E51124CE
:09372F00FBF51120ED030237FC4B
:103738007800121D0BA811121D50E5112404F8760B
:10374800FF75E8DF1236FD5407FFE4FEFDFC7B073A
:103758001236817038E51070139007D3121CFFE4FD
:103768007B01F8121B529007D3121D5C7510029052
:103778000114121D6800000000900124121D680049
:10378800000000902700E054BFF00237FC902700AB
:10379800E04440F01236FD540112367B7009E51101
:1037A8002404F87600801A1236FD540212367B7013
:1037B80009E5112404F876018007E5112404F87658
:1037C80002E5112404F8E6FF3395E0FEEF7806C31E
:1037D80033CE33CED8F9FFFBAA0EEA3395E0F9F8D9
:1037E800900080121CFFEF543FFFEC121C8A9000DF
:0437F80080121D5CC2
:1037FC0030EE2875E8BF902700E030E61E9007A257
:10380C00121CFFE47B01FAF9F8121B529007A2126A
:10381C001D5C9005CBE0700343B80430FE0A75F8CC
:10382C00BF902701E054BFF030FD0A75F8DF9027F8
:10383C0001E054DFF0E5112405F511D0D0D082D091
:06384C0083D0F0D0E03251
:030053000240CE9A
:1040CE00C0E0C0F0C083C082C0D075D000C000C0B8
:1040DE0003C004C005C006C0079005CBE0FBC39427
:1040EE0032501D900000121CFFEB25E025E02462EB
:1040FE00F582E43406F583121D5C9005CBE004F0E6
:10410E00D007D006D005D004D003D000D0D0D082B6
:07411E00D083D0F0D0E032A5
:0300FB00020BF8FD
:010BF80032CA
:10444900C299C298439810C200C2027B017A0779C7
:10445900A99007CD121DDEE49007D8F0A31236B655
:09446900E4A3F09007AA04F0227C
:1043D5009007A8E0B4010312444930002E20022BB7
:1043E500120610502312363B9007ACE024059007C7
:1043F500D9F07B017A0779AA9007D0121DDE53996F
:0C440500EF759968439808221244492280
:10061000C20312363B9007D7E0FF9007AAE0FE6FB7
:10062000600CEE64FE6007EEF46003020ACC7B010E
:100630007A0779AD9007DB121DDE9007ABE0121D43
:10064000E70A881006723006A13107043206E43347
:1006500007DC38085F3908E83A074C540794550915
:10066000095A09855B098D5C099F5D09E45E0000FC
:100670000ACCE49007DAF09007DAE0FFC394035065
:100680001BEF1236F1A3E0FF1235DD9007DAE0121E
:1006900036F1E0FF1235DD12368880DBD203020A24
:1006A000CCE49007DAF012369B5034EF25E025E0D9
:1006B00012368F1235DD123617242BF582E43405FD
:1006C0001235D312361712368F78101235DA1236E9
:1006D0001712368F78181235DA1236880206A6D22B
:1006E00003020ACC90053B121CFF1235DD90053B3E
:1006F0001235D590053B121CFF78101235DA9005A3
:100700003B0209D0E49007DAF012369B5039EF250E
:10071000E025E024A2F582E43405F583121CFF9065
:1007200007DE121D5C1236A41235DD9007DE12358D
:10073000D51236A478101235DA1236A4781812358C
:10074000DA123688020709D203020ACCE49007DAEB
:10075000F012369B5039EF123653121CFF1235DD62
:100760001236172453F582E434051235D3123617A6
:10077000123657121CFF78101235DA12361712365D
:1007800057121CFF78181235DA123688020751D238
:1007900003020ACCE49007DAF012369B5039EF12CC
:1007A0003661121CFF1235DD123617243FF582E444
:1007B00034051235D3123617123665121CFF781025
:1007C0001235DA123617123665121CFF78181235F8
:0C07D000DA123688020799D203020ACC24
:1007DC009007AEE0FD9007ADE0FF1236AAEDF09069
:1007EC0007AFE0FE12362EEEF0EEFE7C00E42D128A
:1007FC0036C59007EA121D5C9007ADE090451D933D
:10080C0075F004A4FFAEF09007E8EEF0A3EFF0C291
:10081C00AFAA06F97B01C002C0017A0779EA9007FA
:10082C00F1121DDED001D0021244B3D2AF7B017A9B
:10083C000679259007F67415F07F0A120B2F4006E7
:10084C00121DC7E48005121DC77401121AF2D203DF
:03085C00020ACCC1
:10085F00E49007E2F01237049406500A123620741F
:10086F00401236D680EF9007E27406F012370494E8
:10087F00095009123620E41236D680F090063774EC
:10088F001DF0E4A3F0C2AF9007E2F09007E2E0FBA7
:10089F00C3940A503FE0FD12362FE0FEED1236AA48
:1008AF001236C09007E4121D5CEB90451D9375F056
:1008BF0004A4FDACF0AA04F97B01C002C0017A07C1
:1008CF0079E49007F1121DDED001D0021244B31269
:1008DF0036D780B7D2AF020A6DE49007E2F0123735
:1008EF00049414501074252F1236AEE0FF1235DD2C
:1008FF001236D780E9D203020ACCE49007DAF090DF
:10090F0007DAE0FB123653121D6800000000EB12ED
:10091F003661121D680000000012370B24D1F582DA
:10092F00E43405F583121D6800000000EB25E02577
:10093F00E024E5F582E43405F583121D680000001C
:10094F000012370B24F9F582E43405F583121D6884
:10095F0000000000EB25E025E0240DF582E43406CD
:10096F00F583121D6800000000123688E0640570E0
:10097F008ED207020A6D12360D7403020AC7900653
:10098F0059E0FF1235DDD203E4900659F0020ACC8C
:10099F00123715600F04703890072AE0FF12360DDA
:1009AF00EF020AC79005CC121CFF1235DD9005CC63
:1009BF001235D59005CC121CFF78101235DA900540
:1009CF00CC121CFF7818121CCC12360DEF020AC77E
:1009DF00C203020ACC1237156059046003020A845D
:1009EF009007AEE0FFE4FCFDFE123642C3121CBBC3
:1009FF00600CE47F0112364AC3121CBB702E1236F4
:100A0F00A490072AEFF07B017A07792A9007F674F2
:100A1F0001F07FBA120B2F4006121DC7E48005129A
:100A2F001DC77401121AF2D203020ACC12360DE45A
:100A3F00020AC79007AFE0FE9007AE1236C012361B
:100A4F0042D3121CBB401EE47F887E1312364BD359
:100A5F00121CBB50101236A49005CC121D5C12361E
:100A6F000D740180539005CC121D68000000001218
:090A7F00360DE48043C2038044FB
:100A88009007ADE0FF9007E8F09007AEE09007E927
:100A9800F0EFD3940350249007E8E0FFC39401409B
:100AA8001AA3E0FE641A6004EEB41B0F9007E9E095
:100AB800FD1241C612360D7401800412360DE4127F
:040AC8001AF2D20349
:100ACC0030035D9007ABE04480F09007DB121DBE55
:100ADC00C3E994AD9007ACF0E4FF9007A9E02FFFB9
:100AEC00A3E02FFFA3E02FFFA3E0FE2FFFEE602576
:100AFC00E49007DAF09007ACE0FE9007DAE0FDC373
:100B0C009E501274AD2DF582E43407F583E02FFF6F
:100B1C0012368880E09007CBEFF0A37416F0D20267
:020B2C00A20322
:100B2E00227DA07E00123A899007DBE475F0012247
:104357007800121D0BEF5401FFE4FEFDFC7B0112F8
:10436700368190063A7018E04404F0900659E0440C
:1043770004F07F017E007D007C00123D3F8004E059
:0E43870054FBF090063AE06003C2A122D2A1DE
:014395002205
:030023000231396E
:0D313900C0E0C0F0C083C082C0D075D008D7
:10314600209803023271C2983000030232CC9007F5
:10315600D8E0FFD3942340030232C99007CD121D55
:10316600BE8F82758300E599121B04EF1460281444
:10317600604814604E24E1605B14606124236003A0
:10318600023237121AAC646860030232719007D8B3
:10319600041236B6023271900001121AC5FF90076A
:1031A600D7E06F600CEFF46008EF64FE6003023254
:1031B600719007D87402F00232719007D87403F048
:1031C6000232711236759007D8700302326E74049B
:1031D600F00232719007D87423F00232719007D84A
:1031E600E0F582758300121AC56416703F7812F6F0
:1031F60008F612366F2404FFE433FE7813E6C31292
:1032060036E850137813E6F582758300121AC578EE
:103216001226F6080680DB900022121AC57812667E
:10322600700AD2001236B7A3E4F0803F12444980F8
:103236003A9007D8E0FFC39404401A12366F24036D
:10324600FDE433FCC3EF9DEC1236EA50089007D834
:10325600E004F0801612366F2403FFE433FE900775
:10326600D8E06F7001EE70037422F0309958C2995D
:103276009007D9E0D39400404AE014F09007D012AA
:103286001DBE121AACFFE5D030E005439808800356
:103296005398F78F999007D9E0FFD394025018EF0F
:1032A6007B01B402067A0779CB80047A0779CC9041
:1032B60007D0121DDE800F9007D1E475F001121BB6
:0632C600268003124449BA
:0B32CC00D0D0D082D083D0F0D0E03210
:03000B000242941A
:10429400C0E0C083C082C0D09007A6E0B4010FA3E1
:1042A400E0D394004008E014F07003A304F09005F8
:1042B4002AE0B40113900567E0D39400400AE014A7
:1042C400F070059005B204F0D0D0D082D083D0E055
:0142D40032B7
:1041C600EF24FE601D14602924027039EDB41A052F
:1041D6001236CC04F0ED641B702B74031236CE1429
:1041E600F022EDB41A051236DE04F0EDB41B16808B
:1041F6000DEDB41A051236DE04F0EDB41B07740398
:064206001236E014F02264
:103C5D009007F1121DBE121AACFF9007EE121DBE99
:103C6D00EF121AF29007EFE475F001121B26900780
:103C7D00F2E475F001121B269007F1121DBE121A07
:103C8D00ACFF9007EE121DBEEF121AF29007EFE493
:103C9D0075F001021B267416F0A37442F0A374058F
:103CAD00F0A37441F0A3227B017A07792A7401F005
:103CBD007DA022ED75F008A4FF9007FB121DBEE953
:103CCD002FF9EA35F0FA9007F2E0FD22E0FD75F0EC
:103CDD0008A4FF9007FAE02FFF9007F9E035F0FEFA
:103CED0022E0FEA3E0FF9007F2E0FD9007FB021D2E
:103CFD00BE7B017A0679257415F07DA022EEF0A326
:103D0D00EFF0A3021DDE7B017A0779E57401F07DEA
:103D1D00A0E4FFFE22742BF0A374FEF0A3227F0219
:103D2D0012449DC2827F02221244E19007F1E054B9
:023D3D00FE2264
:094494007F0212449DD2827F02D6
:10449D00EF6012E4FE00000000000000000EEEB41C
:0544AD0014F31F80EB79
:0144B20022E7
:1044E100D287D286D283124494C283123D2B0244D6
:0144F1009D2D
:0F44F200D287C283124494D283123D2B02449D81
:09452700D294C2907F0202449D6F
:09453000D294D2907F0202449D56
:04412500A3E0FBFF19
:02412900AD07E0
:10412B009028B47480F0E4FCED30E704D283800275
:10413B00C283124494ED25E0FDECC394075009C2F1
:10414B00827F0212449D8002C2820CECB408D9C259
:10415B008712449430830DC282D283D2877F02129E
:10416B00449DC322C283D2877F0112449DC282D356
:01417B002221
:02439600AD0771
:10439800E4FC9028B47480F0C287E4FBEC25E0FCD0
:1043A800124499A283E4334CFCC2827F0212449DDA
:1043B8000BEBB408E7D287ED7004C2838002D28386
:0C43C800124494C2827F0112449DAF0495
:0143D40022C6
:053EA500900802EDF0A1
:103EAA00900808123D0A900806E0A3F012452790F0
:103EBA000807E0D3940040751244E1900802E054E8
:103ECA00FEFF1241294002801D900802E064A070A2
:103EDA001A900808E0FBFF12412940028008900866
:103EEA000812412540051244F2C322900807E0D384
:103EFA009400402F90080A121DBE121AACFF1241FC
:103F0A002990080B123C9C900808123C9C900807C8
:103F1A00E014F0A3E07002A3E070D01244F27F0A2A
:103F2A0012449D900808E07002A3E070821244F2E5
:0E3F3A007F0A12449D7F0A12449D124530D327
:013F48002256
:050B3E009007F1EDF04D
:100B4300E49007FCF09007F7123D0A9007F5E0A345
:100B5300F09007F6E0D394005003020BF3123D35F7
:100B6300FF1241294002802A9007F1E064A0701728
:100B73009007F7E0FBFF124129400280159007F729
:100B83001241254002800B123D354401FF124129D9
:100B930040051244F2C3229007F6E0FFD3940040CD
:100BA30042EFB401069007FC7401F09007FCE0FFEC
:100BB3001243969007F9121DBEEF121AF29007FA2C
:100BC300123C9C9007F7123C9C9007F6E014F0A3AC
:100BD300E07002A3E070051244F280077F01124423
:100BE3009D80B49007F7E07002A3E06003020B540A
:040BF3001244F2D3E3
:010BF70022DB
:10447200C2059007EDEEF0A3EFF09007ECE0FCA38D
:10448200E0FEA3E0FF9007F5ECF0120B3E9205A2CE
:014492000524
:014493002206
:053A89009007F2EDF0D2
:103A8E00C2059007F9123D0A9007F6E0FDA3F0EF8C
:103A9E005407FFC374089FFFA3F0EDD39F5013A3E9
:103AAE00123CEE9007F7123B59300503023B56A22B
:103ABE0005229007F9123CEE9007F8123B592005AB
:103ACE0003A205229007F7E0FFA3E0FEC3EF9E904E
:103ADE0007F7F0EEFF7E009007F9EE8FF0121B262F
:103AEE009007FCEE8FF0121B269007F7E0131313CE
:103AFE00541F9007FEF0E4A3F09007FEE0FFA3E052
:103B0E00C39F5021123CD9C007123CC090080674C6
:103B1E0008F0D007123B69200503A205229007FF8B
:103B2E00E004F080D49007FE123CD9C007123CC0CE
:103B3E009007FEE075F008A4FF9007F7E0C39F9092
:0A3B4E000806F0D007123B69A2053B
:103B580022E0900806F0123EA592057F6412449D6B
:0C3B680022123EA592057F6412449D22AB
:1044B3009007EE121DDE123C5D9007F2123C9C1237
:0C44C3003C5D9007F2E475F001021B263E
:083974009007DDEEF0A3EFF077
:10397C00C204E49007E4F09007DDE0FEA3E0FF90C2
:10398C0007EC123CFE124472920420040C9007E4E3
:10399C00E004F0E0C3940340DE9007EC123CB47FEB
:1039AC00BA7E0012447290072AE06006640160023D
:1039BC00E4F09007EC123D131244723004089007A7
:1039CC00E5E06455604C900625123CA3123CA31212
:1039DC003CA3123D22123D22123D22741DF0E4A3A1
:1039EC00F09007E5E0645560299007F6123CFE7FE5
:1039FC000A7E00123A899007E57455F09007F6128A
:103A0C003D13123A899007F6123CB47FBA7E00122D
:103A1C003A89E49007E3F09007E3E0FBC3940A5083
:103A2C005AE0FD25E02426F582E43406F583E0FE19
:103A3C00ED25E02425F582E43406F583E07C0024B2
:103A4C0000FFEC3EFEE4FD9007DF121D5CEB9045A1
:103A5C001D9375F004A4FDACF0AA04F97B01C0021F
:103A6C00C0017A0779DF9007F1121DDED001D00278
:0C3A7C001244B39007E3E004F0809CD3F8
:013A8800221B
:0A451D0010111314161712151821BF
:0944D70044052000000000C106AC
:102A9400121CFFEF2401FFE43EFEE43DFDE43CFC98
:102AA40022121CFFC3EF9400FFEE94B4FEED94BD1C
:102AB400FDEC9415FC227F007EB47DBD7C15121DB7
:102AC40027D3021CBB9007F67B017A057953741057
:102AD400F07DA0229007F67B017A05793F7410F00F
:102AE4007DA0229007F67B017A0579D17410F07DE0
:102AF400A0229007F67B017A0579E57410F07DA099
:102B040022F0EE25E025E02480F582E43407F58305
:102B1400121CFFE4FB7A01F9F8124250900779E0A5
:102B2400227F007EB47DBD7C1522EF25E025E024C4
:102B3400E0F582E43407F583121CFFEC1218AA7B3B
:102B44004B7AF4790978401217047B007A8079086B
:102B5400784502180D9007F67B017A0579F974100F
:102B6400F07DA02275F004121DB2121CFF90077BA9
:102B7400E075F00CA42455F582E43407F5832212A1
:102B84001D0BAB07AA06A905A804227B147A3B787F
:102B9400401216131218E8E47B64FAF9F8121B6D5C
:102BA4009007DC121D5C9007DC021CFF900779E0A3
:102BB40025E025E02445F582E43407F583229007D7
:102BC40079E075F00CA42476F582E43405F58322CB
:102BD4009007F8E025E025E0242BF582E43405F5A0
:102BE40083229007DAE025E025E02462F582E434CC
:102BF40006F58322E0FB25E025E024A2F582E434F7
:102C040005F583229007F67B017A06790D7410F09E
:102C14007DA07FAA7E0022E47F64FEFDFC121D27B6
:102C2400C3021CBBE47F687E01FDFC121D33121B32
:102C34006D7B887A08E4F9F802425090077BE075CE
:102C4400F00CA42459F582E43407F58322121D27DD
:102C5400021B52E4FFFEFDFC121D33D3021CA5FB34
:102C640025E025E0248CF582E434072275F0040283
:102C74001DB2EF25E025E024E0F582E43407F58376
:102C8400121CFFEC0218AA121D33121B52EC12186C
:102C9400AA7B3E7AE87981783F1217040218E81279
:102CA4001D5C9007DAE004F022EB25E025E02435F2
:102CB400F582E43407F58322121D5C9007DAE00400
:102CC400F0229007F4121CFF780D021CDF9007F429
:102CD400121CFF7809021CDF121D0B9007E0021D75
:102CE4005C121D0B9007E4021D5C121D0B9007E89B
:102CF400021D5C121D0B9007F4021D5CE0FBA3E0B7
:102D04009007F4CBF0A3EBF022F8121B6DE47BF0F8
:102D14007A55F9F8124250EF2410FFEE342722E0DE
:102D240025E0246CF582E43405F58322E47B507AB3
:102D340014F9F8D3021CA59007DAE004F0E022901D
:102D440007DA021CFF121CFFE47BF47A01F9F8C3D2
:102D5400021CBB121D0B9007EC021D5C9007DAE00D
:102D6400FB25E025E022900779E004F022121D5CA7
:102D740090077AE004F0229007DAE0FFC39432224D
:102D84009007DAE0FFC3940322C390056DE09488B2
:102D940090056CE094132225E025E02480F582E47C
:102DA4003407F58322C3900730E0940A90072FE09C
:102DB4009400229028B47480F02290055F121CFFC6
:102DC400900563021D5C90054B121CFF90054F0299
:102DD4001D5C9005DD121CFF9005E1021D5C900551
:102DE400F1121CFF9005F5021D5C900605121CFFF4
:102DF400900609021D5C900619121CFF90061D0224
:102E04001D5CE47FF47E01FDFC2225E02425F5828F
:102E1400E43406F5832225E02426F582E43406F51D
:0F2E2400832290065E021CFFF583E4F0A3F022E8
:1032D7009007DB121D68000000009007DF121D68D1
:1032E700000000009005CBE06432600302346053B5
:1032F700B8FB9007DAF0122D7B502FEF122BEAC0A4
:1033070083C082121CFFE47B08FAF9F8124250D0FE
:1033170082D083121D5C9007DF121CFF122BE6126E
:103327002C519007DF122CBC80CCE47B32FAF9F8E1
:103337009007DF121CFF124250900621121D5CE419
:103347009007DAF0122D7B501DEF122BEAC083C0D5
:1033570082121CFF900621121D27121B5FD082D0FC
:1033670083122CBC80DEE49007DAF0122D7B501B11
:10337700EF122BEAC083C082121CFF7B517A0E1218
:103387002C39D082D083122CBC80E0E49007DAF08D
:103397009007DB121D27C000C001C002C003122B1B
:1033A700E6121CFFA804A905AA06AB07121B6DE4C9
:1033B7007B32FAF9F8124250D003D002D001D00084
:1033C700121B529007DB122CBCE0B432C39007DB10
:1033D700122C84123DFD1218E890065E121D5C7FC8
:1033E700207E497D697C0090065E121D27C3121C52
:1033F700A5400A90065E121D6800000000122E26E6
:1034070090053B121D5C122E269005CC122AC25045
:103417002FE4FFFEFDFC9005CC122C2160229005C5
:1034270020121CFF9005CC122AC2501490063AE0D5
:103437004402F06002C2A1900659E04402F0800BFA
:1034470090063AE054FDF07002D2A1122E269005A4
:0934570020121D5CE49005CBF08D
:013460002249
:063461009007F0121D5C53
:103467009007F8E0FF64036028EF122BD8122D496C
:1034770050030234E4122BD4122D494032122BD4BC
:10348700121CFFE47B641AF8D3121CBB50210235CF
:103497004190052B122C1B502390052F122C1B50EB
:1034A7001BE47F64FEFDFC900533122C21500D9028
:1034B70007F9121D68447A00000235BE122E0690E5
:1034C700052B122AC25016122E0690052F122AC259
:1034D700500B122E06900533122AC2405D122CC6DD
:1034E700C004C005C006C007122CC6D003D002D046
:1034F70001D000121B6DC004C005C006C0079007AD
:10350700F0122CC9C004C005C006C0079007F0120E
:103517002CC9D003D002D001D000121B6DD003D02C
:1035270002D001D0001235C8C004C005C006C007CC
:103537009007F0121CFF780D805B122CD1C004C0DD
:1035470005C006C007122CD1D003D002D001D0008D
:10355700121B6DC004C005C006C0079007F0122CEF
:10356700D4C004C005C006C0079007F0122CD4D001
:1035770003D002D001D000121B6DD003D002D001BE
:10358700D0001235C8C004C005C006C0079007F0B8
:10359700121CFF7809121CDFE47BE87A03F9F812A2
:1035A7001B6DEC1218AAD003D002D001D00012185C
:1035B7000D9007F9121D5C9007F9121CFF1218E80D
:0C35C70022121B52EC1218AA123DFD2229
:064064009007F0121D5C44
:10406A009007F4E0FCA3E0FDEC1218AFE4FBFA7948
:10407A007A784412180D12417C7B007AA0798C78E8
:10408A00461217047BF97A0F7949784012180D12F3
:10409A0018E89007F6121D5C9007F0121CFFEC332B
:1040AA00501B9007F6121D27C374A09BFF748C9AAD
:1040BA00FEE499FDE498FC9007F6121D5C9007F661
:0340CA00121CFFC6
:0140CD0022D0
:10231F00122DB77814121D0B124539122D304012A1
:10232F007814121D99000000007824121D990000E6
:10233F0000007818121D0B124539122D30401278FB
:10234F0018121D99000000007828121D9900000036
:10235F0000781C121D0B124539122D304012781CBB
:10236F00121D9900000000782C121D99000000002A
:10237F007818121D0B7814121D33121B52781C1271
:10238F002C8B900114121D5C7828121D0B782412CF
:10239F001D33121B52782C122C8B900124121D5CB2
:1023AF007814122CDC7818122CE5781C122CEE788D
:1023BF0010122D579005AE121D6800000000E4901A
:1023CF0007DAF0122D845024122B2E1218E89007E2
:1023DF00DA122BF8121D5C9005AE121CFFEB122BBC
:1023EF00FA122C519005AE122CA380D7E49007DA85
:1023FF00F09007DB7402F09007DAE075F00CA4247C
:10240F0072F582E43405F583C083C0829007DBE068
:10241F00D082D083122C70121CFF9007DA122BC5BA
:10242F00C083C0829007DBE0D082D083122C701261
:10243F001D5C9007DBE014F0E070BC122CA6E0B43A
:10244F0003AFE49007DAF09007DAE0FBC394035090
:10245F0010EB122BFA121CFFEB122BC6122CA380BF
:10246F00E67824122CDC7828122CE5782C122CEE2E
:10247F007820122D57900741121D6800000000E4CC
:10248F009007DAF0122D845029122B2E1218E81211
:10249F002BA49007DAE0FB122CAE121D5C900741C3
:1024AF00121CFF122CAD122C51900741122CA302BB
:1024BF0024937840122CDC7844122CE57848122CA7
:1024CF00EEE49007DAF0122D845033122C767BD67F
:1024DF007AA679327846122B4B1226CDE47F507EA6
:1024EF00C3FDFC9007DC122C21500E122BAA900773
:1024FF00DA122D23EEF0A3EFF0122CA680C878305D
:10250F00122CDC7834122CE57838122CEE783C1231
:10251F002D57E49007DAF09007DAE0FFC3940450E8
:10252F0048122C767B257ABD791E7847122B4B12D9
:10253F0026CD7F207E497D697C009007DC122C21FF
:10254F0050219007DAE0B4030EE47B08FAF9F81291
:10255F002BAA121BF88003122BAA9007DA122BD783
:10256F00121D5C122CA60225267824122CF7E4905B
:10257F0007F8F07814121D0B12346190059AEEF0E3
:10258F00A3EFF07824121D0B90059A122D00124024
:10259F006490063BEEF0A3EFF07828122CF790072B
:1025AF00F87401F07818121D0B12346190059CEE2F
:1025BF00F0A3EFF07828121D0B90059C122D00123E
:1025CF00406490063DEEF0A3EFF0782C122CF790BC
:1025DF0007F87402F0781C121D0B12346190059EDF
:1025EF00EEF0A3EFF0782C121D0B90059E122D002C
:1025FF0012406490063FEEF0A3EFF07820122CF714
:10260F009007F87403F07810121D0B1234619005C7
:10261F00A0EEF0A3EFF0122D8D402690056FE09401
:10262F008890056EE0941340187850122C28EC1205
:10263F0018AA7931122B8F90065AEEF0A3EFF08083
:10264F0007E490065AF0A3F0122D8D4026900571E5
:10265F00E09488900570E0941340187854122C2859
:10266F00EC1218AA79B1122B8F90065CEEF0A3EF43
:10267F00F08007E490065CF0A3F0121E1330073DC4
:10268F00122DB7C207122AC97F5A7E00123A891239
:10269F002AD87F6A7E00123A89122AE77F7A7E0053
:1026AF00123A89122AF67F8A7E00123A89122B5922
:0D26BF007F9A7E00123A89122C08123A8987
:0E26CC0022123DFD1218E89007DC121D5C2260
:101E13007810121D0BEC335023900568121CFFC081
:101E230004C005C006C0077810122B83D007D00664
:101E3300D005D004121B5F900568801590057212BF
:101E43001D27C0007810121D0BD000121B529005E5
:101E530072121D5C7814121D0BEC33502390064153
:101E6300121CFFC004C005C006C0077814122B83E0
:101E7300D007D006D005D004121B5F900641801511
:101E830090064D121D27C0007814121D0BD00012AE
:101E93001B5290064D121D5C7818121D0BEC33502B
:101EA30023900645121CFFC004C005C006C0077876
:101EB30018122B83D007D006D005D004121B5F90D5
:101EC30006458015900651121D27C0007818121D73
:101ED3000BD000121B52900651121D5C781C121D70
:101EE3000BEC335023900649121CFFC004C005C0FD
:101EF30006C007781C122B83D007D006D005D00468
:101F0300121B5F9006498015900655121D27C000CD
:101F1300781C121D0BD000121B52900655121D5C2B
:101F23007820121D0BEC33502390072B121CFFC09B
:101F330004C005C006C0077820122B83D007D00643
:101F4300D005D004121B5F90072B80159007311228
:101F53001D27C0007820121D0BD000121B529007C2
:101F630031121D5C7824121D0BEC3350239005B302
:101F7300121CFFC004C005C006C0077824122B83BF
:101F8300D007D006D005D004121B5F9005B380158F
:101F93009005BF121D27C0007824121D0BD000121C
:101FA3001B529005BF121D5C7828121D0BEC335099
:101FB300239005B7121CFFC004C005C006C00778F4
:101FC30028122B83D007D006D005D004121B5F90B4
:101FD30005B780159005C3121D27C0007828121D70
:101FE3000BD000121B529005C3121D5C782C121DDE
:101FF3000BEC3350239005BB121CFFC004C005C07B
:1020030006C007782C122B83D007D006D005D00446
:10201300121B5F9005BB80349005C7121D27C000BB
:10202300782C121D0BD000121B529005C7801D90F7
:102033000572122ABA401A900572122AA5900572E7
:10204300121D5C90055F122A9490055F121D5C803F
:10205300DE90064D122ABA401A90064D122AA59018
:10206300064D121D5C900553122A94900553121DC0
:102073005C80DE122B25900651122AC2401A90066C
:1020830051122AA5900651121D5C900557122A94ED
:10209300900557121D5C80DB122B25900655122AE2
:1020A300C2401A900655122AA5900655121D5C903F
:1020B300055B122A9490055B121D5C80DB122B25B5
:1020C300900568122AC2401A900568122AA5900545
:1020D30068121D5C90054B122A9490054B121D5CEF
:1020E30080DB122B25900641122AC2401A9006412A
:1020F300122AA5900641121D5C90053F122A949066
:10210300053F121D5C80DB122B25900645122AC267
:10211300401A900645122AA5900645121D5C9005AB
:1021230043122A94900543121D5C80DB122B2590E9
:102133000649122AC2401A900649122AA590064956
:10214300121D5C900547122A94900547121D5C806E
:10215300DB122B25900731122AC2402C9007311233
:102163002AA5900731121D5C7810122C57400B9052
:1021730005DD122A949005DD80099005F1122A9459
:102183009005F1121D5C80C9122B259005BF122A00
:10219300C2402C9005BF122AA59005BF121D5C7882
:1021A30014122C57400B9005D1122A949005D1801C
:1021B300099005E5122A949005E5121D5C80C91269
:1021C3002B259005C3122AC240319005C3122AA5BC
:1021D3009005C3121D5CE4FFFEFDFC7818122C5C15
:1021E300400B9005D5122A949005D580099005E9F6
:1021F300122A949005E9121D5C80C4122B259005C8
:10220300C7122AC240319005C7122AA59005C712EA
:102213001D5CE4FFFEFDFC781C122C5C400B90055A
:10222300D9122A949005D980099005ED122A949029
:1022330005ED121D5C80C4122B2590072B122AC2B8
:10224300402E90072B122AA590072B121D5C7810A5
:10225300121D0BEC33500B900605122A94900605C1
:102263008009900619122A94900619121D5C80C7E2
:10227300122B259005B3122AC2402E9005B3122AC1
:10228300A59005B3121D5C7814121D0BEC33500B93
:102293009005F9122A949005F9800990060D122AE7
:1022A3009490060D121D5C80C7122B259005B71262
:1022B3002AC2402E9005B7122AA59005B7121D5CBD
:1022C3007818121D0BEC33500B9005FD122A9490D5
:1022D30005FD8009900611122A94900611121D5CC7
:1022E30080C7122B259005BB122AC2402E9005BB36
:1022F300122AA59005BB121D5C781C121D0BEC3332
:10230300500B900601122A9490060180099006153D
:0C231300122A94900615121D5C80C7224F
:103D3F009007DA121D5C122DB7122D4390056312F6
:103D4F002C5190055F122AC2400D122DBE122AC9A6
:103D5F007F5A7E00123A89122D4390054F122C5133
:103D6F0090054B122AC2400D122DCA122AD87F6A13
:103D7F007E00123A89122D439005E1122C519005C5
:103D8F00DD122AC2400D122DD6122AE77F7A7E004D
:103D9F00123A89122D439005F5122C519005F1120C
:103DAF002AC2400D122DE2122AF67F8A7E00123AA5
:103DBF0089122D43900609122C51900605122AC222
:103DCF00400D122DEE122B597F9A7E00123A891256
:103DDF002D4390061D122C51900619122AC240092C
:0A3DEF00122DFA122C08123A892254
:102E3300D203E49007DCF0900659F090063AF09044
:102E430005CC121D680000000090072B121D6800BE
:102E5300000000900731121D680000000090056813
:102E6300121D6800000000900572121D680000002A
:102E730000900655121D6800000000900651121DB7
:102E8300680000000090064D121D680000000090CD
:102E93000649121D6800000000900645121D6800D7
:102EA300000000900641121D68000000009005C755
:102EB300121D68000000009005C3121D6800000089
:102EC300009005BF121D68000000009005BB121D95
:102ED30068000000009005B7121D68000000009014
:102EE30005B3121D6800000000C2079005D07410DE
:102EF300F07B017A0779DC9007EC7401F07DA0E4A4
:102F0300FFFE1244729007DCE06455706E9007DA9E
:102F1300F09007EC122ACC7F5A1231259007EC125D
:102F23002ADB7F6A1231259007EC122AEA7F7A1294
:102F3300312F9007EC122AF97F8A12312F9007EC78
:102F4300122B5C7F9A7E00124472820392039007D5
:102F5300EC122C0B12447282039203200308122DED
:102F63003BC3940340AB122DBE122DCA122DD612B1
:102F73002DE2122DEE122DFA02303DE49007DAF025
:102F8300122D602453F582E43405F583121D680085
:102F9300000000EB25E025E0243FF582E43405F54D
:102FA30083121D6800000000122D6024D1F582E415
:102FB3003405F583121D6800000000EB25E025E0D1
:102FC30024E5F582E43405F583121D680000000052
:102FD300122D6024F9F582E43405F583121D68008F
:102FE300000000EB25E025E0240DF582E43406F52E
:102FF30083121D6800000000122D3B6405708112CE
:103003002DB7122AC97F5A7E00123A89122AD87F15
:103013006A7E00123A89122AE77F7A7E00123A8981
:10302300122AF67F8A7E00123A89122B597F9A7EE2
:1030330000123A89122C08123A89E49007DAF090C8
:1030430007DAE0FF122D24E4F0A3F0EF25E02424B7
:10305300F582E43405122E2CEF122BD8121D6800D2
:103063000000009007DAE0FF25E0249AF582E434BB
:1030730005F5837403F0A374E8F0EF25E0243BF532
:1030830082E43406122E2C122D3BB403B290053782
:10309300121D68000000009005A07403F0A374E8FB
:1030A300F090065A742EF0A374E0F0A3745DF0A3BD
:1030B30074C0F0E49007DAF09007DA122BF8121DCF
:1030C3006800000000122CAD121D68000000001201
:1030D3002D3BB404E3E49007DAF0E49007DBF090CF
:1030E30007DBE0FFC39403501C9007DA122BC5756E
:1030F300F004EF121DB2121D68000000009007DB00
:10310300E004F080DA122D3BB403CF7F0A7E001275
:103113003974E49005CBF090065E121D6800000040
:0131230000AB
:10312400227E0012447282039203227E00124472B1
:0531340082039203225A
:1026DA00E4900779F0900779E0FB122BB4121D6899
:1026EA0000000000EB122D9B121D680000000090F4
:1026FA000779E0122C63F583121D6800000000EBD5
:10270A0025E02498F582E43407122E2C122D6AE073
:10271A00B403C2E4900779F0E490077AF0122BB080
:10272A00C083C082121CFF122BC2C083C0829007D2
:10273A007AE0D082D083122C70122C51D082D083AE
:10274A00122D71E0B403D6122BB0C083C082121CC2
:10275A00FFE47B03FAF9F8121BF8D082D083121D2A
:10276A005C122D6AE0640370AFE4900779F0E4909C
:10277A00077AF0122BC2C083C08290077AE0D08217
:10278A00D083122C70121CFF900779122B74C0830D
:10279A00C08290077AE0D082D083122C70122D71F9
:1027AA00E0B403CF122D6AE0B403C3E490077BF0D0
:1027BA00E4900779F0E490077AF090077AE0FFC393
:1027CA0074029FFF900779E0C39F400302285F12BB
:1027DA002C3FC083C08290077AE0D082D083122B2C
:1027EA0068C083C08290077AE0D082D083122C70AE
:1027FA00122AC2405A122B71C083C08290077AE013
:10280A00D082D083122C70121CFF900751121D5CCB
:10281A00122C3FC083C08290077AE0D082D0831204
:10282A002B68C083C08290077AE0D082D083122CB2
:10283A0070121D5C900751121CFF122C3FC083C0FE
:10284A008290077AE0D082D083122C70121D5C121B
:10285A002D740227C4122D6AE0640360030227BFA5
:10286A0090077BE004F0E0640360030227BA900556
:10287A00D0E0B4102720911D122DA9400CE4F0A33A
:10288A00F09005D07421F0801390072FE475F001C1
:10289A00121B268007E490072FF0A3F09005D0E0E2
:1028AA0064216003022A93300603022A6D90077995
:1028BA00F0900779E0FFC3940340030229FBEF126B
:1028CA002BB4121CFFE47B287A3CF9F8D3121CBB08
:1028DA0040030229F5122BB0121CFFE47BB87A6F71
:1028EA00F8C3121CBB50030229F5900779E0FF12C6
:1028FA002B75121D27EF75F00CA4245DF582E434C4
:10290A0007F583121CFF121B5FE47B32FA122D516A
:10291A0050030229F5900779122D23E0FEA3E0FF68
:10292A00EF2410FFEE34AAFEE434FFFDE434FFFC8A
:10293A00E47B107A27122D0D122A9D90077C121D16
:10294A005C90077C121D27E4FFFE7DC47C09122BD4
:10295A001DFB122D9B121D5CEB122BFA121CFFEFB2
:10296A002410FFEE34AAFEED34FFFDEC34FFFCE444
:10297A007B107A27F9122D0D122A9DE47B107A27F3
:10298A00F9F8121B6D90077C121D27124250AB07F3
:10299A00AA06A905A804E4FFFE7DC47C09122B1D22
:1029AA00122C63F583121D5CEB122C64122B12FE9F
:1029BA0025E0122E0EEBF0EE122C64122B12FE25DD
:1029CA00E0122E1AEF122B05FE25E025E02427F54A
:1029DA0082E43406F583EB122B0525E025E0242852
:1029EA00F582E43406F583EFF0D206122D6A022846
:1029FA00BB30066FC2AFE490077AF090077AE0FB2B
:102A0A00C3940A5047E0FD122E1AE0FEED122E0E74
:102A1A00E07C002400FFEC3EFEE4FD90079E121DC0
:102A2A005CEB90451D9375F004A4FDACF0AA04F983
:102A3A007B01C002C0017A07799E9007F1121DDE60
:102A4A00D001D0021244B3122D7480AFD2AF7B01F1
:102A5A007A0679259007F67415F07DA07F0A7E0024
:102A6A00123A8930911C122DA9400DE4F0A3F0907E
:102A7A0005D07410F0C2062290072FE475F0010207
:092A8A001B26E490072FF0A3F0D5
:012A93002220
:0E450F00E490052AF0900567F09005B2F022C6
:1043160020A20D90052AE0700704F090056704F0CE
:1043260020A21C9005B2E0B4011512450F90063A82
:10433600E04401F06002C2A1900659E04401F03069
:10434600A20E12450F90063AE054FEF07002D2A17A
:014356002244
:100BFE00050620FB7448ECFF8C48F1F1201EF1F045
:100C0E00744CEDFF8C4C20FB7448ECFF8C48F1F1DA
:100C1E00201EF1F0744CEDFF8C4C20FB7448ECFF61
:100C2E008C48F1F1201EF1F0744CEDFF8C4C20FB42
:100C3E007448ECFF8C48F1F1201EF1F0744CEDFF7E
:100C4E008C4C20FB7448ECFF8C48F1F1201EF1F027
:100C5E00744CEDFF8C4C20FB7448ECFF8C48F1F18A
:100C6E00201EF1F0744CEDFF8C4C201D8F6F201F59
:100C7E008F7020338F7120578F7220588F73201EE4
:100C8E008F7420328F7520348F7620518F532052DF
:100C9E008F5420FC8FFDF0FB2048854730481F4DB8
:100CAE008647F0482F4D8551B6512051D0532F4DC8
:100CBE0000468046F1F1F01EF1F0204C854B304C91
:100CCE001F4D864BF04C2F4D8552B6522052D054AC
:100CDE002F4D004A804A20BB0F4D87BB20BB84831B
:100CEE00B4BB2820AF3826381F4D8F38DF22F0389E
:100CFE0020328F3820348038201E863820BAD04ECD
:100D0E00F0382B4E8F3830388138303886382038CE
:100D1E0000BF87C08FBFB7BF20C000C18F3887C14B
:100D2E00F0C1224ED0C18F3930398639203981C178
:100D3E0024388F3920C2073917C28FC2034E154E81
:100D4E00074E1A4E0D4E8FBD00BE8F38213884824D
:100D5E0020BD84BE00C074BA88BA22208F38F03805
:100D6E0020028F397839783978398F3978398F3937
:100D7E00C01040398F38C04140388F382638007740
:100D8E0019778F77C012407700388F1D29081261AE
:100D9E008F3863388F3863388F3A2E1E00628F6219
:100DAE008B6120E58F3820E48FE520A38FE420A20D
:100DBE008FA3209F8F39C011403A8F3AC040403ADE
:100DCE008F9F209F10A38F3A203A133A063A193A72
:100DDE0000398FA235A217A200A305E406E418E499
:100DEE0009E518388F38203819381B388F1E222005
:100DFE008F38F03820048F387938793879388F3831
:100E0E0079388F38C01340388F38C04240388F3809
:100E1E002638007819788F78C015407800388F1FE3
:100E2E0020EB8F3820EA8FEB20A98FEA20A88FA91C
:100E3E00201F10A98F392039123905391939007040
:100E4E008FA820A914A817A81AA80CA804EA06EAC5
:100E5E0009EA07EB17388F38173819388FAA8938EF
:100E6E00206F1038146D8F57F06E2F4DD06E2457A3
:100E7E00786C8E6C24577C6080608B5F206C8B6BE3
:100E8E0020608B5F205F6C6B8F6D206E0F4D8F38E7
:100E9E002138AF6E206E0F4D8F382138A46E290980
:100EAE0012658F3863388F3863388F3A2E3200666A
:100EBE008F668B6520E78F3820E68FE720A58FE6BB
:100ECE0020A48FA520A08F39C014403A8F3AC0407D
:100EDE00403A8FA020A010A58F3A203A133A063A36
:100EEE00193A00398FA435A417A400A505E606E625
:100EFE0018E609E718388F38203819381B388F3222
:100F0E0022208F38F03820068F387A387A387A389F
:100F1E008F387A388F38C01640388F38C0434038F3
:100F2E008F382638007919798F79C01840790038B2
:100F3E0014678F33243300688F688B6720ED8F38EA
:100F4E0020EC8FED20AC8FEC20AB8FAC203310ACAF
:100F5E008F39203912390539193900718FAB20AC10
:100F6E0014AB17AB1AAB0CAB04EC06EC09EC07EDAB
:100F7E0017388F38173819388FAD107010708A38AF
:100F8E002038007014638F58245800648F648B636C
:100F9E00290A12698F3863388F3863388F3A2E34A6
:100FAE00006A8F6A8B6920E98F3820E88FE920A7C5
:100FBE008FE820A68FA720A18F39C017403A8F3A0D
:100FCE00C042403A8FA120A110A78F3A203A133A7F
:100FDE00063A193A00398FA635A617A600A705E8D6
:100FEE0006E818E809E918388F38203819381B3800
:100FFE008F3420008F38C01940388F38C0444038A5
:10100E008FEE14EF8FEE24EE00F08FF08BEF221E9A
:10101E0010AE10AE00AF00AF8F3810AF8FAFC02242
:10102E004D828F39C03940388FB72EB700B08FB090
:10103E008BAEBBB0223210B110B100B200B28F38FD
:10104E0010B28FB2C0224D828F39C03940388FB85E
:10105E002EB800B38FB38BB1BBB3223410B410B41F
:10106E0000B500B58F3810B58FB5C0224D828F39BF
:10107E00C03940388FB92EB900B68FB68BB4BBB617
:10108E00CE1E4457003517358F35CE3244580036B4
:10109E0017368F36CE344471003717378F37CEB7A9
:1010AE004457003C173C8F3CCEB84458003D173D8A
:1010BE008F3DCEB94471003E173E8F3E2F57AF384D
:1010CE00205710388F39CF3940398F3A20390138AF
:1010DE008F39C0384039009C00268F382E38AF9C8F
:1010EE00003A10C3007F8F382738AF7F00C38FC3FD
:1010FE002F58AF38205810388F39CF3940398F3AA2
:10110E00203901388F39C0384039009D002A8F3878
:10111E002E38AF9D003A10C4009B8F382738AF9BF6
:10112E0000C48FC42F33AF38203310388F39CF39E6
:10113E0040398F3A203901388F39C0384039009EF6
:10114E00002E8F382E38AF9E003A10C5009A8F3879
:10115E002738AF9A00C58FC52FEEAF3820EE103866
:10116E008F39CF3940398F3A203901388F39C0380D
:10117E00403900F100318F382E38AFF1003A10F3BC
:10118E0000F28F382738AFF200F38FF3CE1E431ED6
:10119E0000C617C68FC6CE32433200C717C78FC7D9
:1011AE00CE34433400C817C88FC820C300C98F3847
:1011BE002A38AFC900CF8FCF848CB4CF20C9849684
:1011CE0020C400CA8F382A38AFCA00D08FD0848D81
:1011DE00B4D020CA849720C500CB8F382A38AFCB25
:1011EE0000D18FD1848EB4D120CB849820F300F41B
:1011FE008F382A38AFF400F58FF5848FB4F520F4CC
:10120E00849920C600CC8F382D38AFCC00D28FD227
:10121E008490B4D220C700CD8F382D38AFCD00D3F7
:10122E008FD38491B4D320C800CE8F382D38AFCE53
:10123E0000D48FD48492B4D460357027007A8F385E
:10124E002D38AF7A00598F598485B459603C702877
:10125E00007D8F382D38AF7D005C8F5C8489B45C47
:10126E006136712B007B8F382D38AF7B005A8F5A29
:10127E008486B45A613D712C007E8F382D38AF7E36
:10128E00005D8F5D848AB45D6237722F007C8F386B
:10129E002D38AF7C005B8F5B8487B45B623E72300F
:1012AE0000BC8F382D38AFBC005E8F5E848BB45E71
:1012BE0020850086008784842089008A008B84889C
:1012CE0020848F3825208F39F039203868458FFFDC
:1012DE00F1F1841AF1F0F020F1F1201AF1F08FFB08
:1012EE00F1F1001B8F112611AF1BF1F020FBF1F174
:1012FE00681BF1F0C02140FB8FFBF02020FB79FB37
:10130E008F3879388F3879388F3879388FFB208835
:10131E008F3825208F39F03920386849F1F1841C37
:10132E00F1F0312011200020DF22F020F1F1201CFD
:10133E008F1E001D8F112611AF1D201E681DF1F08E
:10134E00C021F1F1401E8F1EF1F0F020F1F1201EB0
:10135E00791EF1F08F3879388F3879388F3879389F
:10136E00F1F18F1EF1F0C01AF1F34D01F1F08FFE85
:10137E0028FE8F8120FEC01B40FE8FF6C3FE40FE6E
:10138E008F38C01C40388FF72F208F3827388F3872
:10139E00F03828F608F7014D0F4D8F3920406C3983
:1013AE008F4020416C398F4120426C398F4220434F
:1013BE006C398F4320446C398F44201E8FDC20B74C
:1013CE008FDD20328FDE20348FDF27208F392239B8
:1013DE00AF382038DF4D20328EDC20B88EDD203441
:1013EE008EDE201E8EDF2038DE4D20348EDC20B9BE
:1013FE008EDD201E8EDE20328EDF2FDE8F392FDF28
:10140E008F38F0DC3F3900D585D53F3800D785D7EA
:10141E00F0DD3F3900D685D63F3800D885D820D6A6
:10142E00D22320D58138202310D58038C04F40508C
:10143E008F3A203884E220E21150D03A215080E0D9
:10144E0020E21150D350205081E020E28F38D0E0BE
:10145E001050803820DA00388F38F038C050424EA5
:10146E008F39C05540398F3900388638203884DAA4
:10147E00B4D5B4D620D8D22320D78138202310D784
:10148E008038203884E320E31150D03A215080E197
:10149E0020E31150D350205081E120E3D0E11050D1
:1014AE00803820DB00388F38F03800398638203805
:1014BE0084DBB4D7B4D82F4D00D984D9D055B0D948
:1014CE0020DA8094B0DA20DB8095B0DB20560F4D09
:1014DE008F568450B45620508F23304D8F38F0BA2B
:1014EE002F4D8FFCB5FC20FCD0FDBF3B304D8E3B0D
:1014FE002F208F3A263A8F3AF03A2038683B8F38B1
:10150E002038EEFF8C38203820382038203820380C
:10151E00304D8F382038EEFF8C382080F1F18F124D
:10152E002312AF1220128F12F1F026208F3AF03ACA
:10153E002F4D8F3978397939793979398F39F1F1E8
:10154E008F172212AF160217AF198F122116AF1571
:10155E000119AF188F13201500188F1421128F1236
:10156E0021138F1321148F14201200120012001257
:10157E00001300130014D017F1F0304D8F388F394F
:10158E00BE39F1F12017F1F0DF22304D8E392F20C8
:10159E008F3A253A8F3AF03A203868398F3820380A
:1015AE00EFFF8C38BF3A28208F382C38AF3820F810
:1015BE000F4D8FF8201ED024B0F820F8D038203AE6
:1015CE000F4D803A20F90F4D8FF92032D024B0F90B
:1015DE0020F9D038203A0E4D803A20FA0F4D8FFA6E
:1015EE002034D024B0FA20FAD038203A0D4D803A6B
:0E15FE00F0BA2C4D003A853A203A8F80FFFF5C
:1000FE0001400000000000000000000000000000B1
:10010E0000000000000000000000000000000000E1
:10011E0000000000000000000000000000000000D1
:10012E00000000000000FFFFFFFFFFFFFFFFFFFFCB
:10013E00FFFF000040000000400000000000000033
:10014E0040000000400000000000000040000000E1
:10015E004000000000000000400000005B6E000048
:10016E000000000000000000000000000000000081
:10017E0000000030DB00000000E30000192C00003E
:10018E000888016D249000000000000000000000AF
:10019E000000000000000000000000000000000051
:1001AE000000000000000000000000000000000041
:1001BE000000000000000000000000000000000031
:1001CE000000000000000000000000000000000021
:1001DE0000004345343361303265000000000000FA
:1001EE000000000000000000000000000000FFFF03
:1001FE00FFFF000040000000400000004000000033
:10020E004000000040000000000000000000000060
:10021E0000000C00000000000000000000000000C4
:10022E0000000C00000000008000400000000000F4
:10023E001800000008880000000100000001000006
:10024E0000010000000100000001FFFFFFFF0000A1
:10025E000000000000000000000000000000000090
:10026E000000000000000000000000000000000080
:10027E000000000000000000000000000000000070
:10028E000000000000000000000000000000000060
:1004FE000000FFFFFFFFFFFFFFFFFFFFFFFFFFFFFC
:10050E00FFFFFFFFFFFFFFFFFFFFFFFFFFFFFFFFED
:10051E00FFFFFFFFFFFFFFFFFFFFFFFFFFFFFFFFDD
:10052E00FFFFFFFFFFFFFFFFFFFFFFFFFFFFFFFFCD
:10053E00FFFFFFFFFFFF00000000000000000000B3
:10054E00000000000000000000000000000000009D
:10055E00000000000000000000000000000000008D
:10056E00000000000000000000000000000000007D
:10057E00000000000000000000000000000000006D
:10058E00000000000000000000000000000000005D
:10059E00000000000000000000000000000000004D
:1005AE00000000000000000000000000000000003D
:1005BE00000000000000000000000000000000002D
:1005CE00000000000000000000000000000000001D
:1005DE00000000000000000000000000000000000D
:1005EE0000000000000000000000000000000000FD
:1005FE0000000000000000000000000000000000ED
:02060E000000EA
:10160C00021954E86480F8E933E83360110460F09F
:10161C00ED33EC337009E8FCE9FDEAFEEBFF220444
:10162C0060DED3EB9FEA9EE99DE8C2E78CF0C2F73F
:10163C0095F0400CE8CCF8E9CDF9EACEFAEBCFFB0B
:10164C0012191F85D0F05804700320D5B3E804702C
:10165C00075002B2D502195E92D5EC0460F7E4CCC7
:10166C00C0E0C398F8603B94186008400DD0E0FBD4
:10167C00021936E4FBFAC9FC8028E830E406E4C918
:10168C00FBE4CAFCE830E305E4C9CACBFCE8540728
:10169C006010F8C3E913F9EA13FAEB13FBEC13FC33
:1016AC00D8F130F52FC3E49CFCEF9BFFEE9AFEEDD6
:1016BC0099FDD0E0FBEF4E4D4C701222DB0302196A
:1016CC005BEC2CFCEF33FFEE33FEED33FDED30E73E
:1016DC00EB021936EF2BFFEE3AFEED39FDD0E0FBB5
:1016EC0050130BBB000302195EED13FDEE13FEEF5E
:0816FC0013FFEC13FC02193688
:10170400EC4D6011E8497017ED33EC3304600DE4DF
:10171400FCFFFEFD22E933E8330470F80219541289
:10172400191F58046009E4CC24815006285009028A
:10173400195E28400302195BC0E0EB4A7044B9808B
:1017440006D0E0FB02194AEF4E701CBD8008EBFF87
:10175400EAFEE9FD80EBE98DF0A4FEE5F00217ED69
:10176400E9CDF9EAFEEBFFEF89F0A4FCE5F0CE89C0
:10177400F0A42EFFE435F0CD89F0A42DFEE435F07D
:101784008067EF4E7005BD80D780C3EF8BF0A4ACAB
:10179400F0EE8BF0A42CFCE435F0F8EF8AF0A42CE6
:1017A400E5F038FCE433CB8DF0A42CFCE5F03BF8F9
:1017B400EE8AF0A42CFCE5F038F8E433CF89F0A4E9
:1017C4002CFCE5F038CF3400CE89F0A42FFFE5F0EF
:1017D4003EFEE433C98DF0A42EFEE5F039CD8AF047
:1017E400A42FFFE5F03EFEE43DFD33D0E0FB5007BF
:1017F4000BBB000F02195EEC2CFCEF33FFEE33FE43
:06180400ED33FD02193670
:10180A0002195EEC5D046005E8590470030219547C
:10181A0012191F580460F6EC4860F2EC7004FDFEE1
:10182A00FF22C860DB2481C85009C39860025006B1
:10183A0002195B9850CAF582E9294B4A7005AB82B6
:10184A0002194A75F0007C1A7880C3EF9BEE9AED74
:10185A0099400DC3EF9BFFEE9AFEED99FDE842F029
:10186A00DC23ACF0D0E0FFD0E0FED0E0FDAB82207C
:10187A00E7101BEB60BAEC2CFCEF33FFEE33FEED06
:10188A0033FD021936E803F830E705C0F075F000B9
:10189A00EF2FFFEE33FEED33FD40B830E7C280AAEA
:1018AA0075F020800E75F010800575F0087D007EB9
:1018BA00007F003392D530D503121C97EC334010C9
:1018CA00EF33FFEE33FEED33FDEC33FCD5F0ED22C2
:0E18DA00E5F0247EA2D513CC92E7CDCEFF22FE
:1018E800EDD2E7CD33EC3392D524814006E4FFFEF8
:1018F800FDFC22FCE4CFCECDCC24E0501174FF8057
:10190800EDC3CC13CCCD13CDCE13CECF13CF0470F3
:07191800F030D5DE021C9740
:103DF90002195422EDA2E7D2E7F9EC3340F260F35D
:103E0900B4FF08ED547F70E802195EF82481C2E01E
:103E1900C0E0F40428FAC313FCED92E7FD9007FD16
:103E2900121D5CEEA2E7E9BA7F02C31334009400C5
:103E3900FA75F091A4E5F013F494FE8AF0A433E541
:103E4900F033248CD313FDE492E7FE7F007C3F75A9
:103E59008302ECC0E0F8EDC0E0F9EEC0E0FAEFC093
:103E6900E0FB8583F09007FD121CFF85F083121893
:103E79000DD0E0FBD0E0FAD0E0F9D0E0F81216134B
:103E8900ED6480FD30E7011CD583C7ED33CC33F8F1
:0C3E9900D0E0A2E71328C313CC13FD22D5
:10417C00ECC0E0F8EDC0E0F9EEC0E0FAEFC0E0FB17
:10418C00121704EC6480FC7B007A007980783F1273
:10419C001613123DFDD0E0FBD0E0FAD0E0F9D0E0F0
:1041AC00F8C0E012180D123872D0E030E70B7840EE
:0A41BC0079497A0F7BD912161322FD
:10191F00E9D2E7C933E833F892D5EDD2E7CD33EC0E
:07192F0033FC5002B2D52287
:10193600EC30E7100FBF000C0EBE00080DBD000412
:101946000BEB6014A2D5EB13FCED92E7FD2274FFBE
:10195600FCFDFEFF22E480F8A2D574FF13FC7D8017
:03196600E480EF2B
:10385200BE1249253E4CCCCDBEAAAAAB3F80000089
:103862003E7ADBB03EED63383F24BC7D3F490FDB3F
:10387200ED33ECC2E7CC339203B4FF13ED547F6017
:10388200030219547FDB7E0F7DC97C3F023967C278
:1038920004C3947F401E7007EDD2E794904015EF69
:1038A200FBEEFAEDF9ECF87F007E007D807C3F12A2
:1038B200180DD204ED33EC33248430E705E4C0E084
:1038C200806B04FAEDD2E754F0C333DAFD540734C7
:1038D200002323C0E0CCC0E0F8EDC0E0F9EEC0E088
:1038E200FAEFC0E0FBE41218B4EC24FEFC9007FAF5
:1038F200121D5C1217047B007A007980783F121641
:10390200139007FAE0B2E7CCF0A3E0CDF0A3E0CE4B
:10391200F0A3E0CFF0D0E0FBD0E0FAD0E0F9D0E0C5
:10392200F81216139007FA121D2712180D9007FAB3
:10393200121D5C90385274031219699007FA121D15
:1039420027121704D0E0600F245EF582E43438F5C4
:1039520083121D4012161330040B7BDB7A0F79C9D8
:1039620078BF121613ED33EC336006ECA20392E734
:02397200FC2235
:10196900C0E0EFFBEEFAEDF9ECF8121704D0E0F560
:10197900F0EFFBEEFAEDF9ECF8121D17A3A3A3A300
:10198900E8C0E0E9C0E0EAC0E0EBC0E0C0F012174F
:1019990004121D40A3A3A3A3121613D0F0D0E0FB99
:0D19A900D0E0FAD0E0F9D0E0F8D5F0D4227B
:03000000023FD8E4
:0C3FD800787FE4F6D8FD75812002401FC0
:1019B600E709F608DFFA8046E709F208DFFA803E13
:1019C60088828C83E709F0A3DFFA8032E309F60800
:1019D600DFFA8078E309F208DFFA807088828C8368
:1019E600E309F0A3DFFA806489828A83E0A3F6081C
:1019F600DFFA805889828A83E0A3F208DFFA804CF6
:101A060080D280FA80C680D4806980F280338010CC
:101A160080A680EA809A80A880DA80E280CA803335
:101A260089828A83ECFAE493A3C8C582C8CCC583AD
:101A3600CCF0A3C8C582C8CCC583CCDFE9DEE7807D
:101A46000D89828A83E493A3F608DFF9ECFAA9F0FC
:101A5600EDFB2289828A83ECFAE0A3C8C582C8CC52
:101A6600C583CCF0A3C8C582C8CCC583CCDFEADE6B
:101A7600E880DB89828A83E493A3F208DFF980CCCD
:101A860088F0EF60010E4E60C388F0ED2402B404C6
:101A96000050B9F582EB2402B4040050AF2323456D
:061AA6008223901A067372
:101AAC00BB010689828A83E0225002E722BBFE0238
:091ABC00E32289828A83E493226B
:101AC500BB010CE58229F582E5833AF583E02250D6
:101AD50006E92582F8E622BBFE06E92582F8E22220
:0D1AE500E58229F582E5833AF583E493223A
:101AF200BB010689828A83F0225002F722BBFE01D3
:021B0200F322CC
:101B0400F8BB010DE58229F582E5833AF583E8F017
:101B1400225006E92582C8F622BBFE05E92582C8C3
:021B2400F222AB
:101B2600C5F0F8A3E028F0C5F0F8E582158270024A
:061B36001583E038F022E7
:101B3C00A3F8E0C5F025F0F0E5821582700215835C
:061B4C00E0C838F0E822B9
:0D1B5200EF2BFFEE3AFEED39FDEC38FC22E2
:0E1B5F00C3EF9BFFEE9AFEED99FDEC98FC2281
:101B6D00E88FF0A4CC8BF0A42CFCE98EF0A42CFC17
:101B7D008AF0EDA42CFCEA8EF0A4CDA8F08BF0A495
:101B8D002DCC3825F0FDE98FF0A42CCD35F0FCEBF4
:101B9D008EF0A4FEA9F0EB8FF0A4CFC5F02ECD39B9
:0F1BAD00FEE43CFCEAA42DCE35F0FDE43CFC2226
:101BBC0075F008758200EF2FFFEE33FECD33CDCCE0
:101BCC0033CCC58233C5829BED9AEC99E582984063
:101BDC000CF582EE9BFEED9AFDEC99FC0FD5F0D640
:101BEC00E4CEFBE4CDFAE4CCF9A88222B800C1B96A
:101BFC000059BA002DEC8BF084CFCECDFCE5F0CBA8
:101C0C00F97818EF2FFFEE33FEED33FDEC33FCEBE0
:101C1C0033FB10D703994004EB99FB0FD8E5E4F99B
:101C2C00FA227818EF2FFFEE33FEED33FDEC33FC88
:101C3C00C933C910D7059BE99A4007EC9BFCE99A7C
:101C4C00F90FD8E0E4C9FAE4CCFB2275F010EF2FC1
:101C5C00FFEE33FEED33FDCC33CCC833C810D707C1
:101C6C009BEC9AE899400AED9BFDEC9AFCE899F8FC
:0E1C7C000FD5F0DAE4CDFBE4CCFAE4C8F9228F
:10425000C2D5E830E70FB2D5E4C39BFBE49AFAE499
:1042600099F9E498F8EC30E717B2D5124286121BA0
:10427000F8E4C39BFBE49AFAE499F9E498F8800324
:10428000121BF830D50DE4C39FFFE49EFEE49DFDB4
:04429000E49CFC228C
:0D1C8A00EF4BFFEE4AFEED49FDEC48FC2259
:0E1C9700C3E49FFFE49EFEE49DFDE49CFC225E
:101CA500EB9FF5F0EA9E42F0E99D42F0EC6480C8B6
:061CB50064809845F02256
:101CBB00EB9FF5F0EA9E42F0E99D42F0E89C45F07F
:011CCB0022F6
:101CCC00E8600FECC313FCED13FDEE13FEEF13FFF6
:031CDC00D8F1221A
:101CDF00E86010ECA2E713FCED13FDEE13FEEF131B
:041CEF00FFD8F02208
:0C1CF300E6FC08E6FD08E6FE08E6FF221D
:0C1CFF00E0FCA3E0FDA3E0FEA3E0FF2258
:0C1D0B00E2FC08E2FD08E2FE08E2FF2214
:101D1700E493FC740193FD740293FE740393FF2212
:0C1D2700E0F8A3E0F9A3E0FAA3E0FB223F
:0D1D3300E2FB08E2F908E2FA08E2CBF82230
:101D4000E493F8740193F9740293FA740393FB22F9
:0C1D5000ECF608EDF608EEF608EFF622BF
:0C1D5C00ECF0A3EDF0A3EEF0A3EFF022FA
:101D6800A8828583F0D083D082121D7F121D7F1236
:101D78001D7F121D7FE473E493A3C583C5F0C5835B
:101D8800C8C582C8F0A3C583C5F0C583C8C582C8C5
:011D98002228
:101D9900D083D082E493F208740193F20874029319
:091DA900F208740393F274047350
:0C1DB200A42582F582E5F03583F583223C
:091DBE00E0FBA3E0FAA3E0F92226
:101DC700F8E0FBA3A3E0F925F0F0E58215827002A5
:071DD7001583E0FA38F02249
:091DDE00EBF0A3EAF0A3E9F02206
:101DE700D083D082F8E4937012740193700DA3A38B
:101DF70093F8740193F5828883E47374029368609F
:061E0700EFA3A3A380DF9E
:061E0D008A838982E47360
:08453900EC30E703121C97228D
:103FE400023B74E493A3F8E493A34003F68001F244
:103FF40008DFF48029E493A3F85407240CC8C333DE
:10400400C4540F4420C8834004F456800146F6DFAC
:10401400E4800B01020408102040809044CFE47E29
:10402400019360BCA3FF543F30E509541FFEE493A1
:10403400A360010ECF54C025E060A840B8E493A368
:10404400FAE493A3F8E493A3C8C582C8CAC583CA93
:10405400F0A3C8C582C8CAC583CADFE9DEE780BE4B
:0144E00000DB
:00000001FF
